:100000000C9440000C9468000C9468000C946800F8
:100010000C9468000C9468000C9468000C946800C0
:100020000C9468000C94A20C0C94CB0C0C94F40C63
:100030000C94980D0C941D0D0C94460D0C946F0DA2
:100040000C94270C0C94500C0C94790C0C946800B4
:100050000C949D0A0C9450080C9468000C94680051
:100060000C9468000C9468000C9468000C94680070
:100070000C94720A0C949E080C946800C80AD40E62
:1000800011241FBECFEFD0E1DEBFCDBF11E0A0E055
:10009000B1E0E2EAFEE102C005900D92AC37B10793
:1000A000D9F715E0ACE7B1E001C01D92AF36B1075A
:1000B000E1F710E0C0E8D0E004C02297FE010E9402
:1000C0004B0FCC37D107C9F70E94D20A0C944F0FBF
:1000D0000C9400000F931F93CF93DF93C0E1D1E006
:1000E000082F10E060E080910E010E94FC0629912B
:1000F000399120233123232B11F061E001C060E00E
:1001000080910C010E94FC0661E080910E010E942A
:10011000FC068AE090E00E94930760E080910E0167
:100120000E94FC0681E0C032D807E1F6DF91CF9152
:100130001F910F910895CF92DF92EF92FF920F934C
:100140001F93CF93DF936C0160E080910E010E94BA
:10015000FC0660E080910C010E94FC068AE090E0C1
:100160000E94930760E080910A010E94FC068AE0E9
:1001700090E00E949307C0E0D0E012C0F7018191A7
:100180007F010E946A008AE090E00E9493070F5F5F
:100190001F4F0830110591F72896C034D10531F072
:1001A0007601EC0EFD1E00E010E0E8CF8AE090E062
:1001B0000E94930761E080910A01DF91CF911F9126
:1001C0000F91FF90EF90DF90CF900C94FC0661E0D0
:1001D00080910E010E94CE0661E080910C010E9488
:1001E000CE0661E080910A010C94CE06EF920F9347
:1001F00061E0809120010E94CE06E12C01E028E020
:1002000040E052EC61E070E08DEA94E00E947009F9
:100210000E94E70081E0809300028093F8018093C0
:10022000F0018093E8011092E0018093D80180935F
:10023000D0018093C801809301028093F9018093DB
:10024000F1018093E9011092E1011092D9018093AC
:10025000D1018093C901809302028093FA018093B7
:10026000F2018093EA011092E2011092DA01809388
:10027000D2018093CA01809303028093FB01809393
:10028000F3018093EB011092E3011092DB01809364
:10029000D3011092CB01809304021092FC01809351
:1002A000F4011092EC011092E4011092DC018093B1
:1002B000D4011092CC01809305021092FD0110929E
:1002C000F5011092ED011092E5011092DD011092FE
:1002D000D5011092CD01109206021092FE011092EB
:1002E000F6011092EE011092E6011092DE011092DA
:1002F000D6011092CE01109207021092FF011092C7
:10030000F7011092EF011092E7011092DF011092B5
:10031000D7011092CF0192E090934002909338025F
:10032000909330029093280210922002909318022A
:100330009093100290930802909341029093390297
:100340009093310290932902109221021092190287
:1003500090931102909309029093420290933A0273
:100360009093320290932A021092220210921A0263
:100370009093120290930A029093430290933B024F
:100380009093330290932B021092230210921B023F
:100390009093130210920B029093440210923C022D
:1003A0009093340210922C021092240210921C029C
:1003B0009093140210920C029093450210923D0209
:1003C0001092350210922D021092250210921D02F9
:1003D0001092150210920D021092460210923E02E7
:1003E0001092360210922E021092260210921E02D5
:1003F0001092160210920E021092470210923F02C3
:100400001092370210922F021092270210921F02B0
:100410001092170210920F0293E090938002909333
:100420007802909370029093680210926002909309
:1004300058029093500290934802909381029093B7
:100440007902909371029093690210926102109266
:100450005902909351029093490290938202909393
:100460007A029093720290936A0210926202109242
:100470005A029093520290934A029093830290936F
:100480007B029093730290936B021092630210921E
:100490005B029093530210924B029093840210924D
:1004A0007C029093740210926C021092640210927B
:1004B0005C029093540210924C0290938502109229
:1004C0007D021092750210926D02109265021092D8
:1004D0005D021092550210924D0210928602109207
:1004E0007E021092760210926E02109266021092B4
:1004F0005E021092560210924E02109287021092E3
:100500007F021092770210926F021092670210928F
:100510005F021092570210924F0294E09093C00233
:100520009093B8029093B0029093A8021092A00208
:100530009093980290939002909388029093C102B6
:100540009093B9029093B1029093A9021092A102E4
:100550001092990290939102909389029093C20213
:100560009093BA029093B2029093AA021092A202C0
:1005700010929A029093920290938A029093C302EF
:100580009093BB029093B3029093AB021092A3029C
:1005900010929B029093930210928B029093C4024C
:1005A0001092BC029093B4021092AC021092A4027A
:1005B00010929C029093940210928C029093C50228
:1005C0001092BD021092B5021092AD021092A502D7
:1005D00010929D021092950210928D021092C60206
:1005E0001092BE021092B6021092AE021092A602B3
:1005F00010929E021092960210928E021092C702E2
:100600001092BF021092B7021092AF021092A7028E
:1006100010929F021092970210928F0295E0909391
:1006200000039093F8029093F0029093E8021092E6
:10063000E0029093D8029093D0029093C8029093D6
:1006400001039093F9029093F1029093E9021092C2
:10065000E1021092D9029093D1029093C902909333
:1006600002039093FA029093F2029093EA0210929E
:10067000E2021092DA029093D2029093CA0290930F
:1006800003039093FB029093F3029093EB0210927A
:10069000E3021092DB029093D3021092CB0290936C
:1006A00004031092FC029093F4021092EC02109258
:1006B000E4021092DC029093D4021092CC02909348
:1006C00005031092FD021092F5021092ED021092B5
:1006D000E5021092DD021092D5021092CD02109226
:1006E00006031092FE021092F6021092EE02109291
:1006F000E6021092DE021092D6021092CE02109202
:1007000007031092FF021092F7021092EF0210926C
:10071000E7021092DF021092D7021092CF0296E009
:100720009093400390933803909330039093280361
:100730001092200390931803909310039093080352
:10074000909341039093390390933103909329033D
:1007500010922103109219039093110390930903AF
:100760009093420390933A039093320390932A0319
:100770001092220310921A039093120390930A038B
:100780009093430390933B039093330390932B03F5
:100790001092230310921B039093130310920B03E8
:1007A0009093440310923C039093340310922C03D3
:1007B0001092240310921C039093140310920C03C4
:1007C0009093450310923D031092350310922D0330
:1007D0001092250310921D031092150310920D0321
:1007E0001092460310923E031092360310922E038D
:1007F0001092260310921E031092160310920E03FD
:100800001092470310923F031092370310922F0368
:100810001092270310921F031092170310920F03D8
:1008200097E0909380039093780390937003909354
:100830006803109260039093580390935003909331
:10084000480390938103909379039093710390935D
:10085000690310926103109259039093510390938E
:1008600049039093820390937A0390937203909339
:100870006A031092620310925A039093520390936A
:100880004A039093830390937B0390937303909315
:100890006B031092630310925B03909353031092C7
:1008A0004B039093840310927C03909374031092F3
:1008B0006C031092640310925C03909354031092A3
:1008C0004C039093850310927D0310927503109250
:1008D0006D031092650310925D0310925503109200
:1008E0004D031092860310927E03109276031092AD
:1008F0006E031092660310925E03109256031092DC
:100900004E031092870310927F0310927703109288
:100910006F031092670310925F03109257031092B7
:100920004F038093C0038093B8038093B0038093F8
:10093000A8031092A0038093980380939003809360
:1009400088038093C1038093B9038093B10380939C
:10095000A9031092A10310929903809391038093AD
:1009600089038093C2038093BA038093B203809378
:10097000AA031092A20310929A0380939203809389
:100980008A038093C3038093BB038093B303809354
:10099000AB031092A30310929B03809393031092D6
:1009A0008B038093C4031092BC038093B403109212
:1009B000AC031092A40310929C03809394031092B2
:1009C0008C038093C5031092BD031092B50310925F
:1009D000AD031092A50310929D03109295031092FF
:1009E0008D031092C6031092BE031092B6031092AC
:1009F000AE031092A60310929E03109296031092DB
:100A00008E031092C7031092BF031092B703109287
:100A1000AF031092A70310929F03109297031092B6
:100A20008F0387E090E090938701809386019093F5
:100A30000901809308010E945F0760937C01709315
:100A40007D0180937E0190937F010F91EF90089537
:100A5000CF93DF9326E0880F991F2A95E1F720E0D6
:100A600030E088539E4F12C0DB01A40FB51FEF0189
:100A7000C40FD51FC881CC934F5F5F4F48305105DD
:100A800099F7285F3F4F2034310549F0FC01E20F10
:100A9000F31F40E050E0B90168577E4FE5CFDF918A
:100AA000CF9108958F929F92AF92BF92CF92DF9293
:100AB000EF92FF920F931F93CF93DF9320918001CA
:100AC000309181012115310571F02130310509F096
:100AD0008FC006E0880F991F0A95E1F720E030E00B
:100AE00088539E4F7CC0D3E0660F771FDA95E1F7FD
:100AF000640F751F13E0660F771F1A95E1F7A0E0EA
:100B0000B0E0812C912CE8E0F0E0E41BF50B685399
:100B10007E4F13C07501E20EF31E6801C20ED31E94
:100B2000E601D880E701D8822F5F3F4F283031059A
:100B300089F7DFEF8D1A9D0A18968E169F0664F4CA
:100B40008B010A0F1B1F20E030E0C8E8AC2EC1E08B
:100B5000BC2EAA0EBB1EDECF36E0880F991F3A9539
:100B6000E1F763E0EE0FFF1F6A95E1F760E070E0E8
:100B7000A0E0B0E088539E4FE857FE4F12C07501C9
:100B8000E20EF31E6801C20ED31EE601D880E70113
:100B9000D8822F5F3F4F2830310589F71196685F63
:100BA0007F4FA417B50724F58C01060F171F5F01AF
:100BB000A60EB71E20E030E0E2CFDB01A40FB51F88
:100BC000EF01C40FD51FC881CC934F5F5F4F4830F2
:100BD000510599F7285F3F4F2034310549F0FC015A
:100BE000E20FF31F40E050E0B90168577E4FE5CFB8
:100BF000DF91CF911F910F91FF90EF90DF90CF90F9
:100C0000BF90AF909F908F900895809186019091B2
:100C10008701609108017091090186179707A1F17A
:100C200040918401509185010E945205809182017A
:100C3000909183010196909383018093820120918A
:100C40000601309107012817390748F48091840183
:100C50009091850101979093850180938401809103
:100C600084019091850197FF11C087E090E09093F7
:100C700085018093840180910801909109019093EE
:100C800087018093860108950C94280508950F9399
:100C90001F9361E0809120010E94FC0664E670E0F1
:100CA00080E090E00E94710760E0809120010E9446
:100CB000FC0668EE73E080E090E00E94710761E05E
:100CC000809120010E94FC0664E670E080E090E0E4
:100CD0000E94710760E0809120010E94FC0668EC90
:100CE00070E080E090E00E94710780918601909111
:100CF000870120910801309109018217930749F477
:100D0000019668E070E00E94E30E909309018093E1
:100D100008010E945F0700917C0110917D012091E4
:100D20007E0130917F01601B710B820B930B673446
:100D300071058105910560F10E9405060E945F071B
:100D400060937C0170937D0180937E0190937F017D
:100D500062E271E08DEA94E00E941E0B60918601D0
:100D6000709187014AE050E08DEA94E00E94DD0B2B
:100D700062E371E08DEA94E00E941E0B609108012D
:100D8000709109014AE050E08DEA94E00E94E50B81
:100D900088E891E01F910F910C949B00982F977019
:100DA00021E030E0092E01C0220F0A94EAF786956F
:100DB0008695869581F0813089F0823091F083307C
:100DC000D1F412C080812095822302C08081822BC1
:100DD00080839FBF0895EAE2F0E008C0E7E2F0E018
:100DE00005C0E4E2F0E002C0E1E2F0E09FB7F89471
:100DF000662341F3EBCF0895982F977021E030E000
:100E0000092E01C0220F0A94EAF7869586958695E9
:100E100081F0813089F0823091F08330D1F412C0BA
:100E200080812095822302C08081822B80839FBF96
:100E30000895EBE2F0E008C0E8E2F0E005C0E5E28A
:100E4000F0E002C0E2E2F0E09FB7F894662341F3DD
:100E5000EBCF08958091490490914A04A0914B04EE
:100E6000B0914C0430914804232F2D5F2D3720F48E
:100E70000196A11DB11D05C0232F2A570296A11D61
:100E8000B11D209348048093490490934A04A09391
:100E90004B04B0934C0480914D0490914E04A0916A
:100EA0004F04B09150040196A11DB11D80934D04D3
:100EB00090934E04A0934F04B093500408950F9361
:100EC0001F938FB7F8940091490410914A04209120
:100ED0004B0430914C048FBFB801C9011F910F9191
:100EE00008958F929F92AF92BF92CF92DF92EF922E
:100EF000FF926B017C010E945F074B015C010E9425
:100F00005F07681979098A099B096C157D058E05AB
:100F10009F05A8F3FF90EF90DF90CF90BF90AF9028
:100F20009F908F900895009741F0019731F0880FBE
:100F3000991F880F991F0197F1F70895FC012089E7
:100F40003189C9010895DC0150962D913C9151974A
:100F5000232B49F05496ED91FC915597E80FF91F1A
:100F6000268930E002C02FEF3FEFC9010895FC0150
:100F7000118A108A158A148A138A128A0895FC012C
:100F800024813581C9010895FC0124813581C9017D
:100F90000895FC0180899189892BD1F03FB7F8949D
:100FA000808991890197918B808B84899589DF0154
:100FB000A80FB91F56962C910196803291051CF40A
:100FC000958B848B02C0158A148A3FBF30E002C023
:100FD0002FEF3FEFC9010895EF92FF921F93CF9338
:100FE000DF931F92CDB7DEB77C01D701DA968D91E2
:100FF0009C91DB974097C8F71FB7F894D696ED9170
:10100000FC91D7970190F081E02DC701C6966983C6
:10101000099569814097C8F4F70182AD93AD0196B7
:1010200093AF82AF84AD95ADE80FF91FE05CFF4F41
:1010300060830196D701DD969C938E93DC97409751
:1010400024F0DD961C921E92DC97F701EA5AFF4FBE
:101050000190F081E02D8081806280831FBF81E05C
:1010600090E00F90DF91CF911F91FF90EF90089546
:10107000665F7F4F680F791FCB010895665F7F4FD2
:10108000680F791FCB010895665F7F4F680F791F46
:10109000CB010895665F7F4F680F791FCB010895DC
:1010A0001F920F920FB60F9211242F938F939F933D
:1010B000AF93BF93EF93FF938091E7049091E8047F
:1010C000892B21F1E0910705F09108058091E70453
:1010D0009091E80401979093E8048093E70480914D
:1010E000EB049091EC04DC01AD51BB4F1A962C91AE
:1010F0000196803191052CF49093EC048093EB04DD
:1011000004C01092EC041092EB0420838091E70459
:101110009091E804892B31F4E0910305F0910405E6
:1011200088E98083FF91EF91BF91AF919F918F915B
:101130002F910F900FBE0F901F9018951F920F9236
:101140000FB60F9211242F938F939F93AF93BF935A
:10115000EF93FF9380918B0490918C04892B21F164
:10116000E091AB04F091AC0480918B0490918C04DD
:10117000019790938C0480938B0480918F049091BD
:101180009004DC01A957BB4F1A962C91019680312F
:1011900091052CF49093900480938F0404C01092D6
:1011A000900410928F04208380918B0490918C0482
:1011B000892B31F4E091A704F091A80488E9808399
:1011C000FF91EF91BF91AF919F918F912F910F90D0
:1011D0000FBE0F901F901895FC01262F13821282CC
:1011E00048EE53E060E070E0448355836683778384
:1011F00086E491E09183808386E591E095878487FA
:1012000080E290E097878687118A108A158A148A6F
:10121000138A128A80E691E097AB86AB80E190E07A
:1012200091AF80AF13AE12AE17AE16AE15AE14AEC0
:10123000222321F0213009F052C028C0DF01A05B39
:10124000BF4F85EC90E08D939C93DF01AE5ABF4F6A
:1012500084EC90E08D939C93DF01AC5ABF4F80ECFF
:1012600090E08D939C93DF01AA5ABF4F81EC90E0F0
:101270008D939C93DF01A85ABF4F82EC90E08D9331
:101280009C93E65AFF4F86EC90E027C0DF01A05BFD
:10129000BF4F8DEC90E08D939C93DF01AE5ABF4F12
:1012A0008CEC90E08D939C93DF01AC5ABF4F88EC9F
:1012B00090E08D939C93DF01AA5ABF4F89EC90E098
:1012C0008D939C93DF01A85ABF4F8AEC90E08D93D9
:1012D0009C93E65AFF4F8EEC90E0918380830895B3
:1012E0003F924F925F926F927F928F929F92AF92B6
:1012F000BF92CF92DF92EF92FF920F931F93CF9303
:10130000DF93EC014A015B01122F3E2C60E072E199
:101310008AE790E0A50194010E94F70E69017A0125
:1013200084E0C80ED11CE11CF11C83E0F694E79424
:10133000D794C7948A95D1F760E074E284EF90E087
:10134000A50194010E94F70E29013A0194E0490E8B
:10135000511C611C711C93E07694679457944794D8
:101360009A95D1F7A30192014427552760E874E8C4
:101370008EE190E00E94190F5901A818B908B7FE34
:1013800003C0B194A194B108A70196014427552741
:1013900060E472E48FE090E00E94190F2819390987
:1013A00037FF03C0319521953109FE01EC5AFF4FFB
:1013B0000190F081E02DA216B3063CF482E0808318
:1013C000620181E0C81AD10804C0108291E0C91AF4
:1013D000D1081630C1F018F4153099F405C0173053
:1013E00029F0193071F404C080E00EC084E00CC014
:1013F000FE01EA5AFF4F0190F081E02D8081846068
:10140000808386E001C082E0023009F4886091E0C8
:10141000391621F092E0391204C002C0806301C085
:101420008062FE01E85AFF4F0190F081E02D808339
:10143000FE01E05BFF4F0190F081E02DD082FE01C4
:10144000EE5AFF4F0190F081E02DC082CA5ADF4F63
:10145000E881F98188E98083DF91CF911F910F9115
:10146000FF90EF90DF90CF90BF90AF909F908F90C4
:101470007F906F905F904F903F9008950F931F93D0
:10148000CF93DF931F92CDB7DEB78C01DC01ED91D6
:10149000FC910190F081E02D698309956981809725
:1014A000D0F4F801848195810196958384838681A7
:1014B0009781E80FF91F628701968032910534F415
:1014C000D80117969C938E93169703C0F801178244
:1014D000168281E001C080E00F90DF91CF911F91D3
:1014E0000F9108951F920F920FB60F9211242F9310
:1014F0003F934F935F936F937F938F939F93AF939C
:10150000BF93EF93FF93E091AB04F091AC04608143
:101510008DE594E00E943E0AFF91EF91BF91AF915B
:101520009F918F917F916F915F914F913F912F91FB
:101530000F900FBE0F901F9018951F920F920FB62D
:101540000F9211242F933F934F935F936F937F9349
:101550008F939F93AF93BF93EF93FF93E091070512
:10156000F0910805608189EB94E00E943E0AFF91AA
:10157000EF91BF91AF919F918F917F916F915F910B
:101580004F913F912F910F900FBE0F901F90189584
:1015900060E08DEA94E00E94EC0861E081E594E06F
:1015A0000C94EC080E94FF0B0E94F6000E94470674
:1015B000FDCFCF92DF92EF92FF920F931F93CF93C5
:1015C000DF936C01EB017A01E60EF71E00E010E0FC
:1015D0000BC06991D601ED91FC910190F081E02D55
:1015E000C6010995080F191FCE15DF0591F7C8012F
:1015F000DF91CF911F910F91FF90EF90DF90CF90EF
:1016000008956115710581F0DB010D900020E9F767
:10161000AD0141505109461B570BDC01ED91FC9186
:101620000280F381E02D099480E090E00895DC01D0
:10163000ED91FC910190F081E02D09940C94010B47
:101640000F931F93CF93DF93EC016DE00E94170B74
:101650008C016AE0CE010E94170B9C01200F311F04
:10166000C901DF91CF911F910F9108954F925F9221
:101670006F927F929F92AF92BF92CF92DF92EF9242
:10168000FF920F931F93CF93DF93CDB7DEB7A19750
:101690000FB6F894DEBF0FBECDBF5C016A017B01BF
:1016A000922E19A281E0821710F08AE0982E8E0106
:1016B0000F5D1F4F492C512C612C712CC701B601B5
:1016C000A30192010E94F70E8C2D929E8019112485
:1016D000015011098A3014F4805D01C0895CF80161
:1016E000808369017A01C114D104E104F10431F766
:1016F000B801C5010E94010BA1960FB6F894DEBF98
:101700000FBECDBFDF91CF911F910F91FF90EF9052
:10171000DF90CF90BF90AF909F907F906F905F9041
:101720004F900895CF92DF92EF92FF920F931F9305
:10173000CF93DF93EC016A017B012115310579F428
:10174000E881F9810190F081E02D642FDF91CF9144
:101750001F910F91FF90EF90DF90CF9009942A3066
:10176000310519F477FD0EC02AE0B701A601CE01BC
:10177000DF91CF911F910F91FF90EF90DF90CF906D
:101780000C94360B6DE20E94170B8C0144275527F1
:10179000BA014C195D096E097F092AE0CE010E9449
:1017A000360B080F191FC801DF91CF911F910F91C0
:1017B000FF90EF90DF90CF9008959A01AB016627DC
:1017C00057FD6095762F0C94920B0F931F93CF9338
:1017D000DF93EC019A01AB01662757FD6095762FE8
:1017E0000E94920B8C01CE010E94200B9801280FC1
:1017F000391FC901DF91CF911F910F91089563E0C7
:101800008DE495E00E94BE0E21E04AE257E060E0E0
:101810008DE495E00E94940E64E08DE495E00E94D2
:10182000C10D61E08BE295E00E94BE0E64E08BE2A8
:1018300095E00E94C10D61E089E095E00E94BE0E36
:1018400064E089E095E00E94C10D789408951F92AC
:101850000F920FB60F9211242F933F934F935F93E4
:101860006F937F938F939F93AF93BF93EF93FF9368
:10187000E0916705F0916805309709F00995FF91AF
:10188000EF91BF91AF919F918F917F916F915F91F8
:101890004F913F912F910F900FBE0F901F90189571
:1018A0001F920F920FB60F9211242F933F934F93D5
:1018B0005F936F937F938F939F93AF93BF93EF93B8
:1018C000FF93E0916905F0916A05309709F0099559
:1018D000FF91EF91BF91AF919F918F917F916F9108
:1018E0005F914F913F912F910F900FBE0F901F90DE
:1018F00018951F920F920FB60F9211242F933F93BA
:101900004F935F936F937F938F939F93AF93BF9307
:10191000EF93FF93E0916505F0916605309709F02C
:101920000995FF91EF91BF91AF919F918F917F9119
:101930006F915F914F913F912F910F900FBE0F903C
:101940001F9018951F920F920FB60F9211242F938C
:101950003F934F935F936F937F938F939F93AF9337
:10196000BF93EF93FF93E0912305F0912405309707
:1019700009F00995FF91EF91BF91AF919F918F91E0
:101980007F916F915F914F913F912F910F900FBE7B
:101990000F901F9018951F920F920FB60F9211245F
:1019A0002F933F934F935F936F937F938F939F9367
:1019B000AF93BF93EF93FF93E0912505F091260538
:1019C000309709F00995FF91EF91BF91AF919F91E9
:1019D0008F917F916F915F914F913F912F910F90D8
:1019E0000FBE0F901F9018951F920F920FB60F9277
:1019F00011242F933F934F935F936F937F938F9314
:101A00009F93AF93BF93EF93FF93E0912105F091E4
:101A10002205309709F00995FF91EF91BF91AF91A1
:101A20009F918F917F916F915F914F913F912F91F6
:101A30000F900FBE0F901F9018951F920F920FB628
:101A40000F9211242F933F934F935F936F937F9344
:101A50008F939F93AF93BF93EF93FF93E0914505CF
:101A6000F0914605309709F00995FF91EF91BF91EC
:101A7000AF919F918F917F916F915F914F913F9126
:101A80002F910F900FBE0F901F9018951F920F92DD
:101A90000FB60F9211242F933F934F935F936F9341
:101AA0007F938F939F93AF93BF93EF93FF93E091B7
:101AB0004705F0914805309709F00995FF91EF919E
:101AC000BF91AF919F918F917F916F915F914F9156
:101AD0003F912F910F900FBE0F901F9018951F925E
:101AE0000F920FB60F9211242F933F934F935F9352
:101AF0006F937F938F939F93AF93BF93EF93FF93D6
:101B0000E0914305F0914405309709F00995FF9164
:101B1000EF91BF91AF919F918F917F916F915F9165
:101B20004F913F912F910F900FBE0F901F901895DE
:101B30001F920F920FB60F9211242F933F934F9342
:101B40005F936F937F938F939F93AF93BF93EF9325
:101B5000FF93E0914B05F0914C05309709F0099502
:101B6000FF91EF91BF91AF919F918F917F916F9175
:101B70005F914F913F912F910F900FBE0F901F904B
:101B80001895DC012C916150223039F4673068F4EB
:101B9000E62FF0E0EA59FE4F06C0693030F4E62F38
:101BA000F0E0E359FE4F208101C020E0DC011A96ED
:101BB000ED91FC911B978081887F822B8083089513
:101BC000CF93DF93EC016883613011F120F0623034
:101BD00009F06CC048C01B821A8286E490E09D83A5
:101BE0008C838EE690E09F838E8384E490E09987D7
:101BF000888785E490E09B878A871D861C8687E41A
:101C000090E09F878E87198A188A88E490E022C026
:101C10008FE690E09F838E8385E890E09B838A83A4
:101C200084E890E09D838C8380E890E099878887A2
:101C300081E890E09B878A8789E890E09D878C8780
:101C400088E890E09F878E878BE890E0998B888B5F
:101C50008AE890E09B8B8A8B1D8A1C8A1F8A1E8AC9
:101C600082E0898323C01B821A8282EB90E09D83ED
:101C70008C8380E790E09F838E8380EB90E0998750
:101C8000888781EB90E09B878A871D861C8683EB83
:101C900090E09F878E87198A188A84EB90E09B8B4F
:101CA0008A8B1D8A1C8A1F8A1E8A698360E0CE0186
:101CB0000E94C10DEA81FB81309709F01082EC810E
:101CC000FD811082198E188E1B8E1A8E1D8E1C8E11
:101CD0001F8E1E8E19A218A2DF91CF91089551E098
:101CE000411101C050E06530F0F4E62FF0E0EA5811
:101CF000FE4F408147FD17C0DC011696ED91FC9127
:101D00001797808121E030E0042E01C0220F0A9451
:101D1000EAF720952823852F042E01C0880F0A9406
:101D2000EAF7282B20830895623099F028F466237F
:101D300041F06130C9F409C0633079F06430A1F436
:101D400010C0FC01518F408F0FC0FC01538F428F98
:101D50000BC0FC01558F448F07C0FC01578F468F85
:101D600003C0FC0151A340A3452B11F440E003C084
:101D7000222319F041E00C946F0E0895DC011896AF
:101D8000ED91FC9119973081262F23703C7F232BF6
:101D900020831A96ED91FC911B9780816C70660FE1
:101DA000877E682B6083089560E08DE495E00E9453
:101DB000E00D61E08BE295E00E94E00D62E089E0D9
:101DC00095E00C94E00D97FB072E16F4009407D0D5
:101DD00077FD09D00E94350F07FC05D03EF49095A1
:101DE00081959F4F0895709561957F4F0895A1E269
:101DF0001A2EAA1BBB1BFD010DC0AA1FBB1FEE1F85
:101E0000FF1FA217B307E407F50720F0A21BB30BCF
:101E1000E40BF50B661F771F881F991F1A9469F74B
:101E200060957095809590959B01AC01BD01CF01A7
:101E30000895052E97FB16F4009407D057FD0DD09A
:101E40000E94F70E07FC09D07EF49095809570955E
:101E500061957F4F8F4F9F4F0895509540953095D6
:101E600021953F4F4F4F5F4F0895AA1BBB1B51E178
:101E700007C0AA1FBB1FA617B70710F0A61BB70BFA
:101E8000881F991F5A95A9F780959095BC01CD019F
:101E90000895EE0FFF1F0590F491E02D0994F8943A
:021EA000FFCF72
:101EA20000006F0520001300010013001500170049
:101EB2008000400020001000080004000200010021
:101EC200080063757272656E744269746D61703A6E
:101ED2002000207461726765744269746D61703AA2
:101EE200200000000000EC07D90A9E07A307C907DB
:101EF200B70700000000C40744084A0800000000B9
:101F0200BF0738083E080102030405060701020064
:0C1F12000300040506070001020305009F
:00000001FF
